:020000040800F2
:1000000000500020ED0A00086D0A0008730A00087D
:10001000790A00087F0A0008850A0008000000002D
:100020000000000000000000000000008B0A000833
:10003000970A000800000000A30A0008AF0A0008A1
:10004000350B0008350B0008350B0008350B000890
:10005000350B0008350B0008350B0008350B000880
:10006000350B0008350B0008350B0008350B000870
:10007000350B0008350B0008350B0008350B000860
:10008000350B0008350B0008350B0008350B000850
:10009000350B0008350B0008350B0008350B000840
:1000A000350B0008350B0008350B0008350B000830
:1000B000350B0008350B0008350B0008350B000820
:1000C000350B0008350B0008350B0008350B000810
:1000D000350B0008BD0A0008350B0008350B000879
:1000E000D10A0008350B0008350B0008000000009D
:1000F0000000000000000000000000000000000000
:0C01000000000000000000005FF808F1A3
:10010C0010B5054C237833B9044B13B10448AFF345
:10011C0000800123237010BD0C060020000000009D
:10012C008438000808B5034B1BB103490348AFF3EF
:10013C00008008BD00000000100600208438000874
:10014C0080B582B000AF0346FB80FB88B3F5006F2F
:10015C0001D103F03FF900BF0837BD4680BD000058
:10016C0080B586B000AF0346FB71834B1B78012B27
:10017C0040F0FA80814B93F90030012B40F0F48071
:10018C007F49002003F0B4FA97F907307D4A82FBCF
:10019C0003129210DB17D31A5BB29BB230339BB2B3
:1001AC001A463021002003F093F997F90720754B7C
:1001BC0083FB02139910D317C91A0B469B000B44EF
:1001CC005B00D31A5BB29BB230339BB21A46382118
:1001DC00002003F07DF997F907309AB26A4B1A8028
:1001EC00694B1B881946694803F016F8674B1B7856
:1001FC00A32B3CDCA02B08DA532B1FD0532B36DC63
:10020C00512B11D0522B14D031E0A03B032B2ED804
:10021C0001A252F823F000BF530200085D0200084F
:10022C0067020008710200085949022003F060FAC5
:10023C0022E05849022003F05BFA1DE056490220E7
:10024C0003F056FA18E05549022003F051FA13E076
:10025C005349022003F04CFA0EE05249022003F0FD
:10026C0047FA09E05049022003F042FA04E04F49F2
:10027C00022003F03DFA00BF444B1B78532B26D8C9
:10028C00424B1B78502B22D900237B611CE07B69ED
:10029C000C333E4AD35C5BB2002B12DB7B690C3314
:1002AC003A4AD35C1F2B0CD97B69DBB2DB00D9B289
:1002BC007B690C33354AD35C9BB21A46042003F09D
:1002CC0007F97B6901337B617B690F2BDFDD97F9C4
:1002DC0007309BB29B019AB22B4B1A802A4B1B887E
:1002EC0019462A4802F098FF04233B6119E03B6948
:1002FC00043BDBB29B00D9B2244A3B6913441B7804
:10030C001B021AB23B6901332048C35C1BB2134376
:10031C001BB29BB21A46062003F030F93B6902333C
:10032C003B613B69232BE2DD2423FB6019E0FB6876
:10033C00243BDBB29B00D9B2144AFB6813441B78F4
:10034C001B021AB2FB6801331048C35C1BB2134387
:10035C001BB29BB21A46072003F010F9FB6802335C
:10036C00FB60FB68432BE2DD044B00221A7000BFDC
:10037C001837BD4680BD00BF1C0700201B0700209E
:10038C009C380008676666661E0700202007002060
:10039C00B0380008C4380008D8380008EC38000819
:1003AC000039000814390008283900083C390008C5
:1003BC0080B5F4B000AF664B01221A7000F0B6FBAA
:1003CC0000F0DAF800F0ACF900F01CF900F07EF95E
:1003DC0000F046F9002002F0D1FFC82000F008FC24
:1003EC0003F00CF85B49022003F082F95A4904200F
:1003FC0003F07EF94FF47A7000F0FAFB0023C7F893
:10040C00CC310021554802F007FFD7F8CC31073327
:10041C00DBB2DB00DBB22E221946042003F058F8C5
:10042C004FF4FA7000F0E4FBD7F8CC310133C7F885
:10043C00CC314A4B1B784D2B08D1484B5B78432B66
:10044C0004D1464B93F87F300E2B03D0D7F8CC3128
:10045C00082BD6DDD7F8CC31082B0FDC4049002017
:10046C0003F046F93F49022003F042F93C490420CD
:10047C0003F03EF93C4B01221A700EE03849002083
:10048C0003F036F93949022003F032F934490420DB
:10049C0003F02EF9344B00221A704FF47A7000F0EE
:1004AC00A7FB334B00221A70324B01221A7007F54E
:1004BC008273C8220021184603F0D6F907F1840391
:1004CC0080220021184603F0CFF93B1D8022002129
:1004DC00184603F0C9F9274B93F900301846FFF77B
:1004EC003FFE02F0FBFE0346002B13D0214B93F989
:1004FC000030DBB20133DBB25AB21E4B1A701D4B0B
:10050C0093F900300F2B02DD1A4B0F221A70104B8F
:10051C0001221A7002F00AFF0346002B13D0154B70
:10052C0093F90030DBB2013BDBB25AB2114B1A70BB
:10053C00104B93F90030002B02DC0E4B01221A7089
:10054C00034B01221A70322000F052FBC3E700BFAC
:10055C001B070020503900086439000820070020D0
:10056C006C390008803900081C07002094390008F9
:10057C00190700201A07002080B590B000AF07F1D2
:10058C00180328220021184603F06EF93B1D0022A7
:10059C001A605A609A60DA601A610123BB614FF4E9
:1005AC008033FB6100233B620123BB6202237B632C
:1005BC004FF48033BB634FF4C013FB6307F1180394
:1005CC00184601F01DFB0346002B01D000F032F958
:1005DC000F237B600223BB600023FB604FF480631E
:1005EC003B6100237B613B1D0221184601F08AFD13
:1005FC000346002B01D000F01DF900BF4037BD466B
:10060C0080BD000080B500AF124B134A1A60114B2D
:10061C00124A5A600F4B00229A600E4B0022DA608D
:10062C000C4B4FF480421A610A4B00225A61094B61
:10063C0000229A61074B0022DA61064B00221A62F3
:10064C00044800F083FE0346002B01D000F0F2F8C2
:10065C0000BF80BD2806002000540040801A060010
:10066C0080B500AF174B184A1A60164B4FF48272C4
:10067C005A60144B00229A60124B0022DA60114B24
:10068C0002221A610F4B01225A610E4B4FF4007279
:10069C009A610C4B3022DA610A4B80221A62094BA8
:1006AC0000225A62074B00229A62064B0A22DA6237
:1006BC00044801F0BFFE0346002B01D000F0BAF84D
:1006CC0000BF80BD7C0600200038004080B500AF24
:1006DC00114B124A1A60104B4FF416425A600E4BD3
:1006EC0000229A600C4B0022DA600B4B00221A613C
:1006FC00094B0C225A61084B00229A61064B0022CE
:10070C00DA61054802F062F90346002B01D000F0D3
:10071C0091F800BF80BD00BFD40600200038014016
:10072C0080B588B000AF07F1100300221A605A6040
:10073C009A60DA603B4B9B693A4A43F01003936131
:10074C00384B9B6903F01003FB60FB68354B9B69CE
:10075C00344A43F020039361324B9B6903F020032E
:10076C00BB60BB682F4B9B692E4A43F0040393611B
:10077C002C4B9B6903F004037B607B68294B9B69C2
:10078C00284A43F008039361264B9B6903F0080346
:10079C003B603B68012241F20301234800F0A5FDB8
:1007AC0003233B6100237B610123BB6107F1100331
:1007BC0019461E4800F0FEFB03233B6101237B61BD
:1007CC000023BB610223FB6107F110031946164895
:1007DC0000F0F0FB4FF400633B61154B7B61012390
:1007EC00BB6107F1100319460F4800F0E3FB4FF40F
:1007FC0080533B6101237B610123BB610323FB61BC
:10080C0007F110031946084800F0D4FB0022002120
:10081C00282000F0E8FA282000F001FB00BF203768
:10082C00BD4680BD00100240000C01400008014094
:10083C000000211080B400AF72B600BFFEE70000CC
:10084C0080B485B000AF154B9B69144A43F001038B
:10085C009361124B9B6903F00103BB60BB680F4BA8
:10086C00DB690E4A43F08053D3610C4BDB6903F018
:10087C0080537B607B680A4B5B68FB60FB6823F0F2
:10088C00E063FB60FB6843F08063FB60044AFB6839
:10089C00536000BF1437BD4680BC70470010024047
:1008AC000000014080B588B000AF786007F11003FC
:1008BC0000221A605A609A60DA607B681B68154ADD
:1008CC00934223D1144B9B69134A43F00803936161
:1008DC00114B9B6903F00803FB60FB68C0233B6171
:1008EC0012237B610323FB6107F1100319460B48AC
:1008FC0000F060FB084BDB69074A43F40013D3613B
:10090C00054BDB6903F40013BB60BB6800BF2037E9
:10091C00BD4680BD0054004000100240000C014058
:10092C0080B588B000AF786007F1100300221A6020
:10093C005A609A60DA607B681B681C4A934231D11A
:10094C001B4BDB691A4A43F48043D361184BDB69B8
:10095C0003F48043FB60FB68154B9B69144A43F01E
:10096C0008039361124B9B6903F00803BB60BB68DF
:10097C004FF420433B6102237B610323FB6107F1AE
:10098C00100319460B4800F015FB4FF480433B61F4
:10099C0000237B610123BB6107F110031946054855
:1009AC0000F008FB00BF2037BD4680BD003800407A
:1009BC0000100240000C014080B588B000AF786098
:1009CC0007F1100300221A605A609A60DA607B68A3
:1009DC001B68204A934239D11F4B9B691E4A43F432
:1009EC00804393611C4B9B6903F48043FB60FB6861
:1009FC00194B9B69184A43F004039361164B9B698E
:100A0C0003F00403BB60BB684FF400733B6102232B
:100A1C007B610323FB6107F1100319460F4800F0BB
:100A2C00C9FA4FF480633B6100237B610023BB61F7
:100A3C0007F110031946094800F0BCFA0022002106
:100A4C00252000F0D0F9252000F0E9F900BF20376F
:100A5C00BD4680BD00380140001002400008014036
:100A6C0080B400AFFEE780B400AFFEE780B400AF07
:100A7C00FEE780B400AFFEE780B400AFFEE780B4C1
:100A8C0000AF00BFBD4680BC704780B400AF00BF54
:100A9C00BD4680BC704780B400AF00BFBD4680BC73
:100AAC00704780B500AF00F087F800BF80BD000034
:100ABC0080B500AF024801F0D7FF00BF80BD00BF7A
:100ACC00D406002080B500AF4FF4006000F026FC87
:100ADC0000BF80BD80B400AF00BFBD4680BC704776
:100AEC000C480D490D4A002302E0D458C45004337D
:100AFC00C4188C42F9D30A4A0A4C002301E0136053
:100B0C000432A242FBD3FFF7E5FF02F089FEFFF7A8
:100B1C004FFC7047000000200C060020D8B50008E0
:100B2C000C060020EC070020FEE7000080B500AFAB
:100B3C00084B1B68074A43F010031360032000F0B6
:100B4C0047F90F2000F008F8FFF77AFE002318464B
:100B5C0080BD00BF0020024080B582B000AF78603D
:100B6C00124B1A68124B1B7819464FF47A73B3FB6D
:100B7C00F1F3B2FBF3F3184600F05FF90346002BD8
:100B8C0001D001230EE07B680F2B0AD80022796874
:100B9C004FF0FF3000F027F9064A7B681360002302
:100BAC0000E0012318460837BD4680BD0000002038
:100BBC00080000200400002080B400AF054B1B7817
:100BCC001A46054B1B681344034A136000BFBD460D
:100BDC0080BC704708000020E807002080B400AFFC
:100BEC00024B1B681846BD4680BC7047E8070020C6
:100BFC0080B584B000AF7860FFF7F0FFB8607B6819
:100C0C00FB60FB68B3F1FF3F05D00A4B1B781A461B
:100C1C00FB681344FB6000BFFFF7E0FF0246BB68B4
:100C2C00D31AFA689A42F7D800BF00BF1037BD46F6
:100C3C0080BD00BF0800002080B485B000AF786094
:100C4C007B6803F00703FB600C4BDB68BB60BA6886
:100C5C004FF6FF031340BB60FB681A02BB681343DB
:100C6C0043F0BF6343F40033BB60044ABB68D360FA
:100C7C0000BF1437BD4680BC704700BF00ED00E0DC
:100C8C0080B400AF044BDB681B0A03F00703184663
:100C9C00BD4680BC704700BF00ED00E080B483B05F
:100CAC0000AF0346FB7197F90730002B0BDBFB7988
:100CBC0003F01F02064997F907305B09012000FA7F
:100CCC0002F241F8232000BF0C37BD4680BC7047B0
:100CDC0000E100E080B483B000AF03463960FB71E3
:100CEC0097F90730002B0ADB3B68DAB20C4997F90D
:100CFC0007301201D2B20B4483F800230AE03B68A0
:100D0C00DAB20849FB7903F00F03043B1201D2B2AB
:100D1C000B441A7600BF0C37BD4680BC704700BF31
:100D2C0000E100E000ED00E080B489B000AFF860B5
:100D3C00B9607A60FB6803F00703FB61FB69C3F1E0
:100D4C000703042B28BF0423BB61FB690433062B68
:100D5C0002D9FB69033B00E000237B614FF0FF32BB
:100D6C00BB6902FA03F3DA43BB681A407B699A4009
:100D7C004FF0FF317B6901FA03F3D9437B680B40D9
:100D8C00134318462437BD4680BC704780B582B0EB
:100D9C0000AF78607B68013BB3F1807F01D3012306
:100DAC000FE00A4A7B68013B53600F214FF0FF3084
:100DBC00FFF790FF054B00229A60044B07221A6044
:100DCC00002318460837BD4680BD00BF10E000E088
:100DDC0080B582B000AF78607868FFF72DFF00BF58
:100DEC000837BD4680BD80B586B000AF0346B960FC
:100DFC007A60FB7300237B61FFF742FF78617A68AE
:100E0C00B9687869FFF790FF024697F90F301146E1
:100E1C001846FFF75FFF00BF1837BD4680BD80B591
:100E2C0082B000AF0346FB7197F907301846FFF705
:100E3C0035FF00BF0837BD4680BD80B582B000AF1E
:100E4C0078607868FFF7A2FF034618460837BD465E
:100E5C0080BD80B485B000AF78600023FB737B68E5
:100E6C0093F82130022B08D07B6804229A637B68AC
:100E7C00002283F82020012320E07B681B681A687D
:100E8C007B681B6822F00E021A607B681B681A686C
:100E9C007B681B6822F001021A607B681A6C7B6805
:100EAC00DB6B012101FA02F25A607B68012283F8A4
:100EBC0021207B68002283F82020FB7B1846143706
:100ECC00BD4680BC7047000080B584B000AF786030
:100EDC000023FB737B6893F82130022B05D07B68D1
:100EEC0004229A630123FB7351E07B681B681A6828
:100EFC007B681B6822F00E021A607B681B681A68FC
:100F0C007B681B6822F001021A607B681B68224A0E
:100F1C00934229D07B681B68204A934222D07B687D
:100F2C001B681F4A93421AD07B681B681D4A934268
:100F3C0012D07B681B681C4A93420AD07B681B68E2
:100F4C001A4A934202D14FF480130EE04FF0807393
:100F5C000BE04FF4803308E04FF4805305E04FF47E
:100F6C00807302E0102300E00123114A53607B6878
:100F7C00012283F821207B68002283F820207B68E3
:100F8C005B6B002B03D07B685B6B78689847FB7BB3
:100F9C0018461037BD4680BD080002401C000240B8
:100FAC003000024044000240580002406C000240F5
:100FBC000000024080B48BB000AF78603960002331
:100FCC007B6200233B6269E101227B6A02FA03F334
:100FDC00FB613B681B68FA691340BB61BA69FB692A
:100FEC009A4240F058813B685B689A4A93425ED0C3
:100FFC00984A934275D8984A934258D0964A93424D
:10100C006FD8964A934252D0944A934269D8944AE4
:10101C0093424CD0924A934263D8924A934246D020
:10102C00904A93425DD8122B2AD8122B59D801A280
:10103C0052F823F0BB10000895100008A710000808
:10104C00E9100008EF100008EF100008EF1000087E
:10105C00EF100008EF100008EF100008EF10000868
:10106C00EF100008EF100008EF100008EF10000858
:10107C00EF100008EF1000089D100008B1100008D8
:10108C00794A934213D02CE03B68DB683B6229E041
:10109C003B68DB6804333B6224E03B68DB68083365
:1010AC003B621FE03B68DB680C333B621AE03B6839
:1010BC009B68002B02D104233B6213E03B689B68C6
:1010CC00012B05D108233B627B68FA691A6109E0A0
:1010DC0008233B627B68FA695A6103E000233B6298
:1010EC0000E000BFBB69FF2B01D87B6801E07B6887
:1010FC0004337B61BB69FF2B02D87B6A9B0002E047
:10110C007B6A083B9B003B617B691A680F213B693A
:10111C0001FA03F3DB431A40396A3B6901FA03F322
:10112C001A437B691A603B685B6803F08053002BA1
:10113C0000F0B1804D4B9B694C4A43F00103936125
:10114C004A4B9B6903F00103BB60BB68484A7B6A4E
:10115C009B08023352F82330FB607B6A03F00303D5
:10116C009B000F2202FA03F3DB43FA681340FB6087
:10117C007B68404A934213D07B683F4A93420DD020
:10118C007B683E4A934207D07B683D4A934201D12B
:10119C00032306E0042304E0022302E0012300E021
:1011AC0000237A6A02F0030292009340FA68134318
:1011BC00FB602F497B6A9B080233FA6841F82320B5
:1011CC003B685B6803F48033002B06D02D4B1A6808
:1011DC002C49BB6913430B6006E02A4B1A68BB69A8
:1011EC00DB43284913400B603B685B6803F4003316
:1011FC00002B06D0234B5A682249BB6913434B6022
:10120C0006E0204B5A68BB69DB431E4913404B6018
:10121C003B685B6803F48013002B06D0194B9A686B
:10122C001849BB6913438B6006E0164B9A68BB697F
:10123C00DB43144913408B603B685B6803F4001379
:10124C00002B21D00F4BDA680E49BB691343CB60DE
:10125C0021E000BF0000321000003110000022100D
:10126C0000002110000012100000111000100240AC
:10127C000000014000080140000C0140001001403A
:10128C0000140140000401400B4BDA68BB69DB43DE
:10129C0009491340CB607B6A01337B623B681A6857
:1012AC007B6A22FA03F3002B7FF48EAE00BF00BFE3
:1012BC002C37BD4680BC70470004014080B485B01B
:1012CC0000AF78600B467B807B689A687B88134004
:1012DC00002B02D00123FB7301E00023FB73FB7B8B
:1012EC0018461437BD4680BC704780B483B000AF3D
:1012FC0078600B467B8013467B707B78002B03D089
:10130C007A887B681A6103E07B881A047B681A610F
:10131C0000BF0C37BD4680BC7047000080B582B062
:10132C0000AF0346FB80084B5A69FB881340002B27
:10133C0006D0054AFB885361FB881846FEF700FF70
:10134C0000BF0837BD4680BD0004014080B584B0A5
:10135C0000AF78607B68002B01D101232BE17B6807
:10136C0093F83D30DBB2002B06D17B68002283F86A
:10137C003C207868FFF796FA7B68242283F83D209E
:10138C007B681B681A687B681B6822F001021A6074
:10139C007B681B681A687B681B6842F400421A6001
:1013AC007B681B681A687B681B6822F400421A6011
:1013BC0000F0FAFFF8607B685B68814A934207D8BB
:1013CC00FB68804A934294BF01230023DBB206E002
:1013DC00FB687D4A934294BF01230023DBB2002BB0
:1013EC0001D00123E7E0FB68784AA2FB03239B0CA6
:1013FC00BB607B681B685B6823F03F017B681B68E4
:10140C00BA680A435A607B681B681B6A23F03F0169
:10141C007B685B686A4A934202D8BB68013309E077
:10142C00BB684FF4967202FB03F3694AA2FB0323D9
:10143C009B0901337A6812680B4313627B681B6843
:10144C00DB6923F44F4222F0FF027B685B685C4946
:10145C008B4219D8FB68591E7B685B685B00B1FB3B
:10146C00F3F3591C40F6FC730B40002B0AD0FB68BD
:10147C00591E7B685B685B00B1FBF3F30133C3F36C
:10148C000B0351E004234FE07B689B68002B11D1C8
:10149C00FB68581E7B6859680B465B000B44B0FB1D
:1014AC00F3F30133C3F30B03002B0CBF0123002315
:1014BC00DBB212E0FB68581E7B6859680B469B0038
:1014CC000B4499000B44B0FBF3F30133C3F30B0350
:1014DC00002B0CBF01230023DBB2002B01D0012316
:1014EC0022E07B689B68002B0ED1FB68581E7B6842
:1014FC0059680B465B000B44B0FBF3F30133C3F3A9
:10150C000B0343F400430FE0FB68581E7B685968DB
:10151C000B469B000B4499000B44B0FBF3F30133D7
:10152C00C3F30B0343F44043796809681343CB615D
:10153C007B681B681B6823F0C0017B68DA697B68D9
:10154C001B6A1A437B681B680A431A607B681B681A
:10155C009B6823F4034323F0FF037A6811697A68CC
:10156C00D26811437A6812680B4393607B681B68DE
:10157C00DB6823F0FF017B685A697B689B691A431F
:10158C007B681B680A43DA607B681B681A687B6897
:10159C001B6842F001021A607B6800221A647B68A7
:1015AC00202283F83D207B6800221A637B6800228E
:1015BC0083F83E20002318461037BD4680BD00BF7F
:1015CC00A08601007F841E00FF083D0083DE1B43C4
:1015DC00D34D621080B588B002AFF8600846114652
:1015EC001A4603467B810B463B811346FB80FFF773
:1015FC00F5FA7861FB6893F83D30DBB2202B40F0B4
:10160C00D9807B690093192301226D49F86800F099
:10161C0071F90346002B01D00223CCE0FB6893F850
:10162C003C30012B01D10223C5E0FB68012283F879
:10163C003C20FB681B681B6803F00103012B07D0DF
:10164C00FB681B681A68FB681B6842F001021A6091
:10165C00FB681B681A68FB681B6822F400621A603E
:10166C00FB68212283F83D20FB68402283F83E2052
:10167C00FB6800221A64FB683A6A5A62FB68BA8CEF
:10168C005A85FB685B8D9AB2FB681A85FB684D4ADC
:10169C00DA62F8883A8979897B690193BB6A00938D
:1016AC000346F86800F090F80346002B52D0012353
:1016BC0081E07A69B96AF86800F0F2F90346002B08
:1016CC000DD0FB681B6C042B07D1FB681B681A68D8
:1016DC00FB681B6842F400721A6001236BE0FB6824
:1016EC005B6A1A78FB681B681A61FB685B6A5A1C98
:1016FC00FB685A62FB681B8D013B9AB2FB681A852A
:10170C00FB685B8D9BB2013B9AB2FB685A85FB6808
:10171C001B685B6903F00403042B1BD1FB681B8D56
:10172C00002B17D0FB685B6A1A78FB681B681A6180
:10173C00FB685B6A5A1CFB685A62FB681B8D013B99
:10174C009AB2FB681A85FB685B8D9BB2013B9AB21F
:10175C00FB685A85FB681B8D002BAAD17A69B96A84
:10176C00F86800F0DEF90346002B0DD0FB681B6C0B
:10177C00042B07D1FB681B681A68FB681B6842F4D2
:10178C0000721A60012316E0FB681B681A68FB687C
:10179C001B6842F400721A60FB68202283F83D201B
:1017AC00FB68002283F83E20FB68002283F83C2073
:1017BC00002300E0022318461837BD4680BD00BF49
:1017CC00020010000000FFFF80B588B002AFF86087
:1017DC00084611461A4603467B810B463B8113464D
:1017EC00FB80FB681B681A68FB681B6842F48072FC
:1017FC001A607B6A00933B6A00224FF00111F86873
:10180C0000F078F80346002B0DD0FB681B681B68B2
:10181C0003F48073B3F5807F03D1FB684FF400723F
:10182C001A6403235FE07B89DBB21A46FB681B68F2
:10183C0002F0FE021A617B6A3A6A2D49F86800F0E0
:10184C00B0F80346002B01D001234CE000237B6150
:10185C00FB681B685B697B61FB681B689B697B6130
:10186C007B697A6A396AF86800F01AF90346002B2A
:10187C000DD0FB681B6C042B07D1FB681B681A6826
:10188C00FB681B6842F400721A6001232BE0FB8892
:10189C00012B05D13B89DAB2FB681B681A6121E088
:1018AC003B891B0A9BB2DAB2FB681B681A617A6A25
:1018BC00396AF86800F0F4F80346002B0DD0FB6889
:1018CC001B6C042B07D1FB681B681A68FB681B6830
:1018DC0042F400721A60012305E03B89DAB2FB681E
:1018EC001B681A61002318461837BD4680BD00BF1F
:1018FC000200010080B584B000AFF860B9603B60B5
:10190C001346FB7125E03B68B3F1FF3F21D0FFF795
:10191C0065F90246BB69D31A3A689A4202D33B680E
:10192C00002B16D1FB6800221A63FB68202283F877
:10193C003D20FB68002283F83E20FB681B6C43F0C3
:10194C002002FB681A64FB68002283F83C20012308
:10195C0023E0BB681B0CDBB2012B0DD1FB681B68B1
:10196C005B69DA43BB6813409BB2002B0CBF0123AD
:10197C000023DBB21A460CE0FB681B689B69DA4358
:10198C00BB6813409BB2002B0CBF01230023DBB2BE
:10199C001A46FB799A42B6D0002318461037BD463A
:1019AC0080BD80B584B000AFF860B9607A603B60F0
:1019BC0051E0FB681B685B6903F48063B3F5806FCF
:1019CC0023D1FB681B681A68FB681B6842F4007221
:1019DC001A60FB681B686FF480625A61FB68002216
:1019EC001A63FB68202283F83D20FB68002283F8F1
:1019FC003E20FB681B6C43F00402FB681A64FB6816
:101A0C00002283F83C20012346E07B68B3F1FF3FC2
:101A1C0021D0FFF7E3F802463B68D31A7A689A4262
:101A2C0002D37B68002B16D1FB6800221A63FB687B
:101A3C00202283F83D20FB68002283F83E20FB68BF
:101A4C001B6C43F02002FB681A64FB68002283F8CD
:101A5C003C20012320E0BB681B0CDBB2012B0CD11A
:101A6C00FB681B685B69DA43BB6813409BB2002BB5
:101A7C0014BF01230023DBB20BE0FB681B689B69DE
:101A8C00DA43BB6813409BB2002B14BF0123002325
:101A9C00DBB2002B8DD1002318461037BD4680BD1C
:101AAC0080B584B000AFF860B9607A602DE0F8685A
:101ABC0000F078F80346002B01D001232DE0BB6821
:101ACC00B3F1FF3F21D0FFF789F802467B68D31AA8
:101ADC00BA689A4202D3BB68002B16D1FB6800226D
:101AEC001A63FB68202283F83D20FB68002283F8F0
:101AFC003E20FB681B6C43F02002FB681A64FB68F9
:101B0C00002283F83C20012307E0FB681B685B691B
:101B1C0003F08003802BCAD1002318461037BD4632
:101B2C0080BD80B584B000AFF860B9607A602DE0FC
:101B3C00F86800F037F80346002B01D001232DE0A4
:101B4C00BB68B3F1FF3F21D0FFF748F802467B6832
:101B5C00D31ABA689A4202D3BB68002B16D1FB6821
:101B6C0000221A63FB68202283F83D20FB680022C8
:101B7C0083F83E20FB681B6C43F02002FB681A6460
:101B8C00FB68002283F83C20012307E0FB681B68FC
:101B9C005B6903F00403042BCAD1002318461037E9
:101BAC00BD4680BD80B483B000AF78607B681B6895
:101BBC005B6903F48063B3F5806F1BD17B681B6892
:101BCC006FF480625A617B6800221A637B68202262
:101BDC0083F83D207B68002283F83E207B681B6CD9
:101BEC0043F004027B681A647B68002283F83C2073
:101BFC00012300E0002318460C37BD4680BC70471B
:101C0C0080B586B000AF78607B68002B01D10123D2
:101C1C0072E27B681B6803F00103002B00F08780E5
:101C2C00924B5B6803F00C03042B0CD08F4B5B685E
:101C3C0003F00C03082B12D18C4B5B6803F480333C
:101C4C00B3F5803F0BD1894B1B6803F40033002B99
:101C5C006CD07B685B68002B68D101234CE27B68FD
:101C6C005B68B3F5803F06D1804B1B687F4A43F419
:101C7C00803313602EE07B685B68002B0CD17B4BB0
:101C8C001B687A4A23F480331360784B1B68774ABD
:101C9C0023F4802313601DE07B685B68B3F5A02FF1
:101CAC000CD1724B1B68714A43F4802313606F4B49
:101CBC001B686E4A43F4803313600BE06B4B1B685C
:101CCC006A4A23F480331360684B1B68674A23F419
:101CDC00802313607B685B68002B13D0FEF77EFFBC
:101CEC00386108E0FEF77AFF02463B69D31A642B91
:101CFC0001D9032300E25D4B1B6803F40033002B76
:101D0C00F0D014E0FEF76AFF386108E0FEF766FFDA
:101D1C0002463B69D31A642B01D90323ECE1534BE4
:101D2C001B6803F40033002BF0D100E000BF7B688C
:101D3C001B6803F00203002B63D04C4B5B6803F071
:101D4C000C03002B0BD0494B5B6803F00C03082BE6
:101D5C001CD1464B5B6803F48033002B16D1434BEC
:101D6C001B6803F00203002B05D07B681B69012B59
:101D7C0001D00123C0E13D4B1B6823F0F8027B68C6
:101D8C005B69DB00394913430B603AE07B681B69E4
:101D9C00002B20D0364B01221A60FEF71FFF386152
:101DAC0008E0FEF71BFF02463B69D31A022B01D950
:101DBC000323A1E12D4B1B6803F00203002BF0D091
:101DCC002A4B1B6823F0F8027B685B69DB00274910
:101DDC0013430B6015E0264B00221A60FEF7FEFE43
:101DEC00386108E0FEF7FAFE02463B69D31A022B73
:101DFC0001D9032380E11D4B1B6803F00203002B68
:101E0C00F0D17B681B6803F00803002B3AD07B6889
:101E1C009B69002B19D0174B01221A60FEF7DEFECE
:101E2C00386108E0FEF7DAFE02463B69D31A022B52
:101E3C0001D9032360E10D4B5B6A03F00203002B15
:101E4C00F0D0012000F0D8FA1CE00A4B00221A60F6
:101E5C00FEF7C4FE38610FE0FEF7C0FE02463B6998
:101E6C00D31A022B08D9032346E100BF001002400D
:101E7C000000424280044242924B5B6A03F0020330
:101E8C00002BE9D17B681B6803F00403002B00F0E6
:101E9C00A6800023FB758B4BDB6903F08053002B72
:101EAC000DD1884BDB69874A43F08053D361854B56
:101EBC00DB6903F08053BB60BB680123FB75824B6D
:101ECC001B6803F48073002B18D17F4B1B687E4A70
:101EDC0043F480731360FEF781FE386108E0FEF76F
:101EEC007DFE02463B69D31A642B01D9032303E11F
:101EFC00754B1B6803F48073002BF0D07B68DB6898
:101F0C00012B06D16F4B1B6A6E4A43F0010313621F
:101F1C002DE07B68DB68002B0CD16A4B1B6A694A8D
:101F2C0023F001031362674B1B6A664A23F0040318
:101F3C0013621CE07B68DB68052B0CD1614B1B6AC0
:101F4C00604A43F0040313625E4B1B6A5D4A43F024
:101F5C00010313620BE05B4B1B6A5A4A23F001032B
:101F6C001362584B1B6A574A23F0040313627B68B5
:101F7C00DB68002B15D0FEF731FE38610AE0FEF766
:101F8C002DFE02463B69D31A41F28832934201D9A5
:101F9C000323B1E04B4B1B6A03F00203002BEED082
:101FAC0014E0FEF71BFE38610AE0FEF717FE02464E
:101FBC003B69D31A41F28832934201D903239BE047
:101FCC00404B1B6A03F00203002BEED1FB7D012B6F
:101FDC0005D13C4BDB693B4A23F08053D3617B68D2
:101FEC00DB69002B00F08780364B5B6803F00C0339
:101FFC00082B61D07B68DB69022B46D1334B002266
:10200C001A60FEF7EBFD386108E0FEF7E7FD0246CB
:10201C003B69D31A022B01D903236DE0294B1B68B2
:10202C0003F00073002BF0D17B681B6AB3F5803F83
:10203C0008D1244B5B6823F400327B689B682149F0
:10204C0013434B601F4B5B6823F474127B68196A53
:10205C007B685B6A0B431B4913434B601B4B012290
:10206C001A60FEF7BBFD386108E0FEF7B7FD0246CB
:10207C003B69D31A022B01D903233DE0114B1B689A
:10208C0003F00073002BF0D035E0104B00221A60E7
:10209C00FEF7A4FD386108E0FEF7A0FD02463B699F
:1020AC00D31A022B01D9032326E0064B1B6803F03D
:1020BC000073002BF0D11EE07B68DB69012B07D18C
:1020CC00012319E000100240007000406000424201
:1020DC000B4B5B68FB60FB6803F480327B681B6A0C
:1020EC009A4206D1FB6803F470127B685B6A9A42D1
:1020FC0001D0012300E0002318461837BD4680BDEF
:10210C000010024080B584B000AF786039607B6805
:10211C00002B01D10123D0E06A4B1B6803F00703AD
:10212C003A689A4210D9674B1B6823F0070265493D
:10213C003B6813430B60634B1B6803F007033A685F
:10214C009A4201D00123B8E07B681B6803F00203BC
:10215C00002B20D07B681B6803F00403002B05D0F8
:10216C00594B5B68584A43F4E06353607B681B68C7
:10217C0003F00803002B05D0534B5B68524A43F421
:10218C0060535360504B5B6823F0F0027B689B6894
:10219C004D4913434B607B681B6803F00103002B14
:1021AC0040D07B685B68012B07D1474B1B6803F45D
:1021BC000033002B15D101237FE07B685B68022B79
:1021CC0007D1414B1B6803F00073002B09D101238D
:1021DC0073E03D4B1B6803F00203002B01D101237C
:1021EC006BE0394B5B6823F003027B685B68364914
:1021FC0013434B60FEF7F2FCF8600AE0FEF7EEFCCE
:10220C000246FB68D31A41F28832934201D9032368
:10221C0053E02D4B5B6803F00C027B685B689B0002
:10222C009A42EBD1274B1B6803F007033A689A429A
:10223C0010D2244B1B6823F0070222493B6813433E
:10224C000B60204B1B6803F007033A689A4201D0DD
:10225C00012332E07B681B6803F00403002B08D0D9
:10226C00194B5B6823F4E0627B68DB681649134307
:10227C004B607B681B6803F00803002B09D0124BE2
:10228C005B6823F460527B681B69DB000E491343C7
:10229C004B6000F021F802460B4B5B681B0903F006
:1022AC000F030A49CB5C22FA03F3094A1360094B6A
:1022BC001B681846FEF750FC002318461037BD4625
:1022CC0080BD00BF0020024000100240D839000839
:1022DC00000000200400002090B48AB000AF294B0D
:1022EC003C1D0FCB84E80F0040F201233B80002300
:1022FC00FB610023BB6100237B6200237B61002315
:10230C003B62214B5B68FB61FB6903F00C03042B04
:10231C0002D0082B03D02BE01C4B3B622BE0FB695B
:10232C009B0C03F00F0328333B4413F8243C7B61D4
:10233C00FB6903F48033002B12D0134B5B685B0CEE
:10234C0003F0010328333B4413F8283CBB617B6941
:10235C000E4A03FB02F2BB69B2FBF3F37B6204E0AF
:10236C007B690B4A02FB03F37B627B6A3B6202E0F4
:10237C00064B3B6200BF3B6A18462837BD4690BCF3
:10238C00704700BFA83900080010024000127A0004
:10239C0000093D0080B400AF024B1B681846BD46D7
:1023AC0080BC70470000002080B500AFFFF7F2FF43
:1023BC000246054B5B681B0A03F007030349CB5C21
:1023CC0022FA03F3184680BD00100240E8390008D9
:1023DC0080B500AFFFF7DEFF0246054B5B68DB0AFA
:1023EC0003F007030349CB5C22FA03F3184680BDC4
:1023FC0000100240E839000880B485B000AF786066
:10240C000A4B1B680A4AA2FB03235B0A7A6802FB8D
:10241C0003F3FB6000BFFB685A1EFA60002BF9D176
:10242C0000BF00BF1437BD4680BC704700000020C1
:10243C00D34D621080B582B000AF78607B68002B02
:10244C0001D1012376E07B685B6A002B08D17B68A5
:10245C005B68B3F5827F09D07B680022DA6105E006
:10246C007B6800221A617B6800225A617B6800221B
:10247C009A627B6893F85130DBB2002B06D17B68F3
:10248C00002283F850207868FEF74AFA7B68022213
:10249C0083F851207B681B681A687B681B6822F0E4
:1024AC0040021A607B685B6803F482727B689B68ED
:1024BC0003F404431A437B68DB6803F400631A4398
:1024CC007B681B6903F002031A437B685B6903F0AA
:1024DC0001031A437B689B6903F400731A437B68FE
:1024EC00DB6903F038031A437B681B6A03F0800333
:1024FC0042EA03017B689B6A03F400527B681B6809
:10250C000A431A607B689B691A0C7B681B6802F093
:10251C0004025A607B681B68DA697B681B6822F4CA
:10252C000062DA617B6800225A657B68012283F8BD
:10253C005120002318460837BD4680BD80B58CB0AD
:10254C0000AFF860B9607A607B800123FB620023E6
:10255C0087F82B30FB6893F85030012B01D1022304
:10256C008AE1FB68012283F85020FEF737FB786282
:10257C00FB6893F8513087F82330FB685B68FB618C
:10258C007B887B8397F82330012B0FD0FB69B3F545
:10259C00827F07D1FB689B68002B03D197F823300F
:1025AC00042B03D0022387F82B305BE1BB68002B94
:1025BC0005D07B68002B02D07B88002B03D1012334
:1025CC0087F82B304EE1FB6893F85130DBB2042BCB
:1025DC0003D0FB68052283F85120FB6800225A6562
:1025EC00FB687A689A63FB687A88DA87FB687A8872
:1025FC009A87FB68BA681A63FB687A88DA86FB6884
:10260C007A889A86FB6800221A64FB6800225A6456
:10261C00FB681B681B6803F04003402B07D0FB686A
:10262C001B681A68FB681B6842F040021A60FB6862
:10263C00DB68B3F5006F78D1FB685B68002B02D0C8
:10264C007B8B012B66D1FB681B6B1A88FB681B68A4
:10265C00DA60FB681B6B9A1CFB681A63FB68DB8EE9
:10266C009BB2013B9AB2FB68DA8653E0FB681B68AD
:10267C009B6803F00203022B1BD1FB68DB8E9BB221
:10268C00002B16D0FB6A012B13D1FB681B6B1A882D
:10269C00FB681B68DA60FB681B6B9A1CFB681A638F
:1026AC00FB68DB8E9BB2013B9AB2FB68DA86002397
:1026BC00FB62FB681B689B6803F00103012B19D1BB
:1026CC00FB68DB8F9BB2002B14D0FB681B68DA68AD
:1026DC00FB689B6B92B21A80FB689B6B9A1CFB6825
:1026EC009A63FB68DB8F9BB2013B9AB2FB68DA877B
:1026FC000123FB62FEF772FA02467B6AD31ABA6BAD
:10270C009A4207D8BB6BB3F1FF3F03D0032387F882
:10271C002B30A7E0FB68DB8E9BB2002BA6D1FB68AD
:10272C00DB8F9BB2002BA1D17CE0FB685B68002B9C
:10273C0002D07B8B012B6BD1FB681A6BFB681B687F
:10274C000C3312781A70FB681B6B5A1CFB681A63EB
:10275C00FB68DB8E9BB2013B9AB2FB68DA8657E0D2
:10276C00FB681B689B6803F00203022B1CD1FB68FF
:10277C00DB8E9BB2002B17D0FB6A012B14D1FB68AC
:10278C001A6BFB681B680C3312781A70FB681B6B96
:10279C005A1CFB681A63FB68DB8E9BB2013B9AB236
:1027AC00FB68DA860023FB62FB681B689B6803F0FE
:1027BC000103012B19D1FB68DB8F9BB2002B14D0CA
:1027CC00FB681B68DA68FB689B6BD2B21A70FB68FB
:1027DC009B6B5A1CFB689A63FB68DB8F9BB2013BBB
:1027EC009AB2FB68DA870123FB62FEF7F7F902461F
:1027FC007B6AD31ABA6B9A4203D8BB6BB3F1FF3F17
:10280C0002D1BB6B002B03D1032387F82B3029E0BB
:10281C00FB68DB8E9BB2002BA2D1FB68DB8F9BB2DB
:10282C00002B9DD17A6AB96BF86800F0B1F80346B9
:10283C00002B06D0012387F82B30FB6820225A6529
:10284C0010E0FB689B68002B0BD100237B61FB68BD
:10285C001B68DB687B61FB681B689B687B617B6921
:10286C0000E000BFFB68012283F85120FB680022C6
:10287C0083F8502097F82B3018463037BD4680BD72
:10288C0080B588B000AFF860B9603B601346FB714F
:10289C00FEF7A4F90246BB6A9B1A3A681344FB6123
:1028AC00FEF79CF9B861394B1B685B011B0DFA698B
:1028BC0002FB03F37B6154E03B68B3F1FF3F50D064
:1028CC00FEF78CF90246BB69D31AFA699A4202D90F
:1028DC00FB69002B3DD1FB681B685A68FB681B68C1
:1028EC0022F0E0025A60FB685B68B3F5827F11D17D
:1028FC00FB689B68B3F5004F04D0FB689B68B3F58D
:10290C00806F07D1FB681B681A68FB681B6822F094
:10291C0040021A60FB689B6AB3F5005F0FD1FB683D
:10292C001B681A68FB681B6822F400521A60FB686B
:10293C001B681A68FB681B6842F400521A60FB683B
:10294C00012283F85120FB68002283F850200323D6
:10295C0017E07B69002B01D10023FB617B69013BF4
:10296C007B61FB681B689A68BB681340BA689A4223
:10297C000CBF01230023DBB21A46FB799A429BD190
:10298C00002318462037BD4680BD00BF0000002044
:10299C0080B586B002AFF860B9607A607B6800934E
:1029AC00BB6800228021F868FFF76AFF0346002B02
:1029BC0007D0FB685B6D43F02002FB685A6503236C
:1029CC0000E0002318461037BD4680BD80B582B0AC
:1029DC0000AF78607B68002B01D101233FE07B685E
:1029EC0093F83D30DBB2002B06D17B68002283F8D4
:1029FC003C207868FDF7E0FF7B68242283F83D20BB
:102A0C007B681B68DA687B681B6822F40052DA600A
:102A1C00786800F041FB7B681B681A697B681B684F
:102A2C0022F490421A617B681B685A697B681B68A8
:102A3C0022F02A025A617B681B68DA687B681B6883
:102A4C0042F40052DA607B6800221A647B68202210
:102A5C0083F83D207B68202283F83E200023184613
:102A6C000837BD4680BD000080B58AB000AF7860E5
:102A7C007B681B681B687B627B681B68DB683B623E
:102A8C007B681B685B69FB610023BB6100237B6176
:102A9C007B6A03F00F03BB61BB69002B0DD17B6A12
:102AAC0003F02003002B08D03B6A03F02003002B1B
:102ABC0003D0786800F046FA7BE1BB69002B00F08C
:102ACC00B180FB6903F00103002B05D13B6A03F4D1
:102ADC009073002B00F0A6807B6A03F00103002B9F
:102AEC000AD03B6A03F48073002B05D07B681B6C07
:102AFC0043F001027B681A647B6A03F00403002B29
:102B0C000AD0FB6903F00103002B05D07B681B6C1A
:102B1C0043F002027B681A647B6A03F00203002B09
:102B2C000AD0FB6903F00103002B05D07B681B6CFA
:102B3C0043F004027B681A647B6A03F00803002BE1
:102B4C000FD03B6A03F02003002B04D1FB6903F088
:102B5C000103002B05D07B681B6C43F008027B68DB
:102B6C001A647B681B6C002B00F01E817B6A03F0DF
:102B7C002003002B07D03B6A03F02003002B02D06C
:102B8C00786800F0DFF97B681B685B6903F0400331
:102B9C00002B14BF01230023DBB27B617B681B6C11
:102BAC0003F00803002B02D17B69002B31D078682D
:102BBC0000F021F97B681B685B6903F04003002B74
:102BCC0023D07B681B685A697B681B6822F0400223
:102BDC005A617B689B6B002B13D07B689B6B764A8E
:102BEC005A637B689B6B1846FEF76EF90346002B05
:102BFC0016D07B689B6B5B6B7A68926B1046984720
:102C0C000EE0786800F0E3F80AE0786800F0DFF88E
:102C1C0006E0786800F0DBF87B6800221A64C3E0F9
:102C2C0000BFC1E07B681B6B012B40F0A1807B6A6D
:102C3C0003F01003002B00F09B803B6A03F01003A1
:102C4C00002B00F095800023FB607B681B681B68E1
:102C5C00FB607B681B685B68FB60FB687B681B68C0
:102C6C005B6903F04003002B4ED07B689B6B1B68A9
:102C7C005B683B823B8A002B00F098807B689B8DC5
:102C8C003A8A9A4280F092807B683A8ADA857B682D
:102C9C009B6B9B69202B2BD07B681B68DA687B684D
:102CAC001B6822F48072DA607B681B685A697B6847
:102CBC001B6822F001025A617B681B685A697B68A9
:102CCC001B6822F040025A617B68202283F83E2068
:102CDC007B6800221A637B681B68DA687B681B6858
:102CEC0022F01002DA607B689B6B1846FEF7B1F895
:102CFC007B689A8D7B68DB8D9BB2D31A9BB219468D
:102D0C00786800F06DF851E07B689A8D7B68DB8DFC
:102D1C009BB2D31A7B827B68DB8D9BB2002B47D096
:102D2C007B8A002B44D07B681B68DA687B681B6845
:102D3C0022F49072DA607B681B685A697B681B68A6
:102D4C0022F001025A617B68202283F83E207B68C6
:102D5C0000221A637B681B68DA687B681B6822F0A8
:102D6C001002DA607B8A1946786800F039F81FE0A7
:102D7C007B6A03F08003002B08D03B6A03F08003CE
:102D8C00002B03D0786800F076F812E07B6A03F031
:102D9C004003002B0DD03B6A03F04003002B08D0FE
:102DAC00786800F0B7F804E000BF02E000BF00E074
:102DBC0000BF2837BD4680BD5B2E000880B483B0B1
:102DCC0000AF786000BF0C37BD4680BC704780B444
:102DDC0083B000AF786000BF0C37BD4680BC704735
:102DEC0080B483B000AF78600B467B8000BF0C379B
:102DFC00BD4680BC704780B483B000AF78607B6800
:102E0C001B68DA687B681B6822F49072DA607B6856
:102E1C001B685A697B681B6822F001025A617B6847
:102E2C001B6B012B07D17B681B68DA687B681B68FE
:102E3C0022F01002DA607B68202283F83E207B6847
:102E4C0000221A6300BF0C37BD4680BC704780B5AA
:102E5C0084B000AF78607B685B6AFB60FB68002223
:102E6C00DA85FB680022DA84F868FFF7B0FF00BF50
:102E7C001037BD4680BD80B485B000AF78607B68EC
:102E8C0093F83D30DBB2212B3ED17B689B68B3F5C8
:102E9C00805F14D17B681B69002B10D17B681B6A87
:102EAC00FB60FB681B881A467B681B68C2F3080230
:102EBC005A607B681B6A9A1C7B681A6208E07B6804
:102ECC001B6A591C7A6811621A787B681B685A60F5
:102EDC007B68DB8C9BB2013B9BB27A681946D18430
:102EEC00002B0FD17B681B68DA687B681B6822F0AB
:102EFC008002DA607B681B68DA687B681B6842F0CA
:102F0C004002DA60002300E0022318461437BD4665
:102F1C0080BC704780B582B000AF78607B681B685E
:102F2C00DA687B681B6822F04002DA607B6820223A
:102F3C0083F83D207868FFF741FF002318460837D7
:102F4C00BD4680BD80B586B000AF78607B6893F8D5
:102F5C003E30DBB2222B40F099807B689B68B3F546
:102F6C00805F17D17B681B69002B13D100237B6119
:102F7C007B689B6A3B617B681B685B689BB2C3F395
:102F8C0008039AB23B691A807B689B6A9A1C7B681F
:102F9C009A6226E07B689B6A7B6100233B617B68BD
:102FAC009B68B3F5805F07D07B689B68002B0AD1C8
:102FBC007B681B69002B06D17B681B685B68DAB2E7
:102FCC007B691A7008E07B681B685B68DBB203F0F6
:102FDC007F03DAB27B691A707B689B6A5A1C7B6828
:102FEC009A627B68DB8D9BB2013B9BB27A68194677
:102FFC00D185002B48D17B681B68DA687B681B681D
:10300C0022F02002DA607B681B68DA687B681B6838
:10301C0022F48072DA607B681B685A697B681B68D3
:10302C0022F001025A617B68202283F83E207B68E3
:10303C001B6B012B23D17B6800221A637B681B68F6
:10304C00DA687B681B6822F01002DA607B681B6808
:10305C001B6803F01003102B0AD10023FB607B6864
:10306C001B681B68FB607B681B685B68FB60FB680C
:10307C007B689B8D19467868FFF7B2FE02E0786892
:10308C0000F096FB002302E0002300E00223184628
:10309C001837BD4680BD000080B584B000AF7860A5
:1030AC007B681B681B6923F440517B68DA687B687A
:1030BC001B680A431A617B689A687B681B691A4310
:1030CC007B685B691343BB607B681B68DB6823F41C
:1030DC00B05323F00C037A681268B9680B43D360C1
:1030EC007B681B685B6923F440717B689A697B6819
:1030FC001B680A435A617B681B682C4A934203D1B4
:10310C00FFF766F9F86002E0FFF74EF9F860FA682D
:10311C0013469B0013449A001A447B685B689B001F
:10312C00B2FBF3F3224AA2FB03235B091901FA68F1
:10313C0013469B0013449A001A447B685B689B00FF
:10314C00B2FBF3F21A4BA3FB02035B09642000FBF6
:10315C0003F3D31A1B013233154AA2FB03235B0979
:10316C0003F0F0031944FA6813469B0013449A00C9
:10317C001A447B685B689B00B2FBF3F20C4BA3FB1D
:10318C0002035B09642000FB03F3D31A1B013233E7
:10319C00074AA2FB03235B0903F00F027B681B6841
:1031AC000A449A6000BF1037BD4680BD003801400C
:1031BC001F85EB5180B586B002AF0346FB7107F15A
:1031CC000F02F91D0323009301230448FFF7B6F9FE
:1031DC00FB7B18461037BD4680BD00BF7C06002027
:1031EC0080B582B000AF0346FB71FB79002B06D192
:1031FC0000224FF480510748FEF777F805E00122D2
:10320C004FF480510348FEF770F800BF0837BD46F5
:10321C0080BD00BF000C014090B585B000AF786058
:10322C000B467B800020FFF7DBFF8120FFF7C2FFFE
:10323C005220FFF7BFFF0020FFF7BCFF0020FFF775
:10324C00B9FF7B881B0A9BB2DBB21846FFF7B2FFB3
:10325C007B88DBB21846FFF7ADFF0020FFF7AAFF13
:10326C000220FDF7C5FC0020FFF7A4FF0220FDF7AC
:10327C00BFFC0020FFF79EFF0220FDF7B9FC0020E9
:10328C00FFF798FF0220FDF7B3FC0023FB810AE057
:10329C00FB897A68D4180020FFF78CFF0346237053
:1032AC00FB890133FB81FB897F2BF1D97B6803F10F
:1032BC0080040020FFF77EFF034623707B6803F138
:1032CC0081040020FFF776FF034623700120FFF7EF
:1032DC0087FF00BF1437BD4690BD000080B582B09B
:1032EC0000AF0023FB7101210F48FDF7E7FF0346F8
:1032FC00002B0BD10F20FDF77BFC01210A48FDF7B9
:10330C00DDFF0346002B01D10123FB7100BF01211E
:10331C000548FDF7D3FF0346002BF8D0FB79184680
:10332C000837BD4680BD00BF0008014080B582B0A3
:10333C0000AF0023FB7102210F48FDF7BFFF0346CE
:10334C00002B0BD10F20FDF753FC02210A48FDF78F
:10335C00B5FF0346002B01D10123FB7100BF0221F5
:10336C000548FDF7ABFF0346002BF8D0FB79184658
:10337C000837BD4680BD00BF0008014080B582B053
:10338C0000AF0346FB71FB7903F00103002B05D062
:10339C00012201210E48FDF7A8FF04E000220121C3
:1033AC000B48FDF7A2FFFB7903F00203002B05D0BD
:1033BC00012202210648FDF798FF04E000220221B9
:1033CC000348FDF792FF00BF0837BD4680BD00BF24
:1033DC00000C014080B500AF02210748FDF76EFFDD
:1033EC000346C3F10103DBB21A4602210248FDF782
:1033FC007CFF00BF80BD00BF000C014080B500AF5A
:10340C0000F01EF800F034F800F002F800BF80BDA8
:10341C00B0B588B000AF094B3C1D1D460FCD0FC495
:10342C0095E8070084E807003A1D1C23002178204A
:10343C0000F080F900BF2037BD46B0BDB839000898
:10344C0080B582B000AF094A3B1D12681146198045
:10345C000233120C1A703A1D03230021782000F05D
:10346C0069F900BF0837BD4680BD00BFD4390008DC
:10347C0080B582B000AFB023BB7120E0BB791A4697
:10348C000021782000F076F910220021782000F03D
:10349C0071F900220021782000F06CF90023FB71F7
:1034AC0007E000224021782000F064F9FB79013319
:1034BC00FB71FB79832BF4D9BB790133BB71BB79DD
:1034CC00B72BDBD900BF00BF0837BD4680BD00005D
:1034DC0080B584B000AF0346FB710B46BB7113463D
:1034EC00BB8000237B73BB790233BB710023BB739E
:1034FC0039E0FB79503BDBB21A460021782000F012
:10350C0039F9BB791B09DBB21033DBB21A46002147
:10351C00782000F02FF9BB7903F00F03DBB21A46C9
:10352C000021782000F026F90023FB7312E0BB8801
:10353C001A017B7B1344A3F500730F4AD35C1A4624
:10354C004021782000F016F97B7B01337B73FB7BE9
:10355C000133FB73FB7B072BE9D9FB790133FB713F
:10356C00BB7B0133BB73BB7B012BC2D900BF00BF3C
:10357C001037BD4680BD00BF0C00002080B584B064
:10358C0000AF0346FB710B46BB711346BB80002397
:10359C00FB721023BB81BB881B0A9BB2BB72BB881E
:1035AC00FB72BB7A802B31D9BB7A842B2ED8FB7A59
:1035BC003F2B13D9FB7A7E2B10D8BB7A813B9BB265
:1035CC001A4652001A441201D31A9B009AB2FB7A83
:1035DC009BB213449BB2303BBB814EE097F90B304E
:1035EC00002B4ADAFB7AFC2B47D8BB7A813B9BB287
:1035FC001A4652001A441201D31A9B009AB2FB7A53
:10360C009BB213449BB2313BBB8136E0BB7A872B18
:10361C0034D9BB7A982B31D8FB7A3F2B14D9FB7A4F
:10362C007E2B11D8BB7A883B9BB21A4652001A44A7
:10363C001201D31A9B009AB2FB7A9BB213449BB231
:10364C0003F53073BB8119E097F90B30002B15DAB9
:10365C00FB7AFC2B12D8BB7A883B9BB21A465200E1
:10366C001A441201D31A9B009AB2FB7A9BB21344F0
:10367C009BB203F2BF23BB8100E000BFBB790233D6
:10368C00BB71FB79503BDBB21A460021782000F06D
:10369C0071F8BB791B09DBB21033DBB21A4600217F
:1036AC00782000F067F8BB7903F00F03DBB21A4601
:1036BC000021782000F05EF80023FB730DE0BB893D
:1036CC00DA00FB7B1344094AD35C1A46402178206C
:1036DC0000F050F8FB7B0133FB73FB7B072BEED91F
:1036EC0000BF00BF1037BD4680BD00BFF0390008D9
:1036FC0080B584B000AF03463960FB710023FB73C7
:10370C000EE0FB7BDB00D9B23B685A1C3A601B789D
:10371C009AB2FB791846FFF7DBFEFB7B0133FB7398
:10372C003B681B78002BECD100BF00BF1037BD46A7
:10373C0080BD000080B586B004AF3A601A460346DF
:10374C00FB710B46BB711346BB80FB7999B2BB79FD
:10375C009AB264230293BB8801933B6800930123C4
:10376C000348FDF737FF00BF0837BD4680BD00BFDB
:10377C002806002080B586B004AF0346FB710B46CB
:10378C00BB7113467B71FB7999B2BB799AB26423F6
:10379C000293012301937B1D009301230348FDF742
:1037AC0019FF00BF0837BD4680BD00BF28060020AA
:1037BC0080B483B000AF78607B68164A934223D103
:1037CC00154B1B78A03B032B1AD801A252F823F0FF
:1037DC00ED370008F5370008FD37000805380008FC
:1037EC000E4B01221A7010E00C4B02221A700CE0E6
:1037FC000A4B03221A7008E0084B04221A7004E0EA
:10380C00064B05221A7000E000BF00BF0C37BD4606
:10381C0080BC7047D4060020180700201907002030
:10382C0070B500260C4D0D4C641BA410A64209D19A
:10383C0000F022F800260A4D0A4C641BA410A64284
:10384C0005D170BD55F8043B98470136EEE755F8A5
:10385C00043B98470136F2E7D0B50008D0B5000814
:10386C00D0B50008D4B5000803460244934200D1F9
:10387C00704703F8011BF9E7F8B500BFF8BC08BCAA
:10388C009E467047F8B500BFF8BC08BC9E46704712
:10389C00424C4F434B202020202020202020202051
:1038AC0000000000496E20757365203173742E2062
:1038BC002020202000000000496E20757365206DCB
:1038CC006964646C652E202000000000496E207530
:1038DC007365206C6173742E202020200000000082
:1038EC00467265652E2020202020202020202020BC
:1038FC0000000000467265652E44656C6574656455
:10390C002031737400000000467265652E44656CAE
:10391C006574656420326E74000000004672656543
:10392C002E44656C6574656420337264000000007D
:10393C004572726F722E2020202020202020202003
:10394C0000000000202050535820204D454D43418D
:10395C00524420200000000052656164696E6700CB
:10396C00202020202020202020202020202020204B
:10397C00000000002020464F554E4420202043419B
:10398C005244202000000000202020204E4F2020F8
:10399C002043415244202020000000000203040573
:1039AC00060708090A0B0C0D0E0F1010AE0010D5EF
:1039BC0080A83FD300B0408D14A1C8DA1281FFD982
:1039CC00F1DB302000A4A6AFAE8D1000000000008B
:1039DC0000000000010203040607080900000000B3
:1039EC000102030400007E005C063A0C1812000071
:1039FC0000000000F017CE1DAC238A29682F463535
:103A0C00243B0241E046BE4C9C527A58585E3664C8
:103A1C00146AF26FD0750000000000000000000076
:103A2C00000000000000000000000000000000008A
:103A3C00000000000000000000000000000000007A
:103A4C00000000000000000000000000000000006A
:103A5C00000000000000000000000000000000005A
:103A6C0000000000000000000000000020400000EA
:103A7C00000000002050200000000000005030002A
:103A8C00000000000060600000000000000018183A
:103A9C000000000000003636000000000000563622
:103AAC000000000000060551090906000000005F37
:103ABC0000000000010201020000000002050200EB
:103ACC0000000000000000020100000000000102E4
:103ADC0000000000000001000100000000000201D5
:103AEC0002000000010101010101010040404040C1
:103AFC0040404000000004083000000000000408B2
:103B0C0031000100000026281810000000002628B3
:103B1C001910010000201C00201C0000444C4A79A4
:103B2C004A4C440010100E24540C00006038140849
:103B3C0014030100182442424224180008100808FB
:103B4C000808080008080808080808080000000809
:103B5C0008000000402010080402010001020408C3
:103B6C0010204000080404081010080000007F001A
:103B7C007F0000000000007F00000000080000082B
:103B8C000000080000080000000800000000000011
:103B9C0006050000000503000000000000060500FB
:103BAC000605000000050300050300000000001CD2
:103BBC00224100000041221C0000000000003E22B7
:103BCC0041410000004141223E0000000000007F06
:103BDC00414100000041417F000000000000083618
:103BEC00414100000041413608000000000008146B
:103BFC002241000000412214080000000008142A91
:103C0C00552241004122552A140800000000003FB3
:103C1C00010101004040407E0000000000003F21F7
:103C2C003D05070070505E427E0000000000007FE2
:103C3C00634100000041637F000000000808087F1A
:103C4C000808080008080808080808004444445FED
:103C5C004444440041221408142241000808082A54
:103C6C000808080014141414141414001434141C2C
:103C7C0014161400080814141422220022221414FE
:103C8C001408080044444A4A4A51510051514A4AC6
:103C9C004A4444001C22221C22221C000020000248
:103CAC00002000003048483905030F000026297910
:103CBC002926000006090906000000000004030084
:103CCC000000000000040304030000000205023C95
:103CDC0042422400012B2D782D2B010000242A7F39
:103CEC002A2A1000001C62322E23140020545E2558
:103CFC0041422000422512082452210020623E63DA
:103D0C003E23020020564957205848002236147F83
:103D1C00143622001C2259554D120C0000004A5535
:103D2C005529000004643C173C64040004643C1FE7
:103D3C003C6404001C22414141221C001C3E7F7F3C
:103D4C007F3E1C001C225D555D221C000814224184
:103D5C0022140800081C3E7F3E1C08007F41414194
:103D6C0041417F007F7F7F7F7F7F7F0040704C438E
:103D7C004C70400040707C7F7C70400001071961E2
:103D8C001907010001071F7F1F0701004922144971
:103D9C00142249000505057D0505050008080808DD
:103DAC002A1C0800081C2A08080808000004027FC6
:103DBC00020400000010207F20100000363636363A
:103DCC003636360000001C1C1C00000000001C1CB9
:103DDC001C00000000001C1C1C00000000001C1C2F
:103DEC001C00000000001C1C1C00000000001C1C1F
:103DFC001C00000000001C1C1C00000000001C1C0F
:103E0C001C00000000001C1C1C00000000001C1CFE
:103E1C001C00000000001C1C1C000000001C2A2AB6
:103E2C002A2A2A00002A2A2A2A2A1C00004E51512A
:103E3C00515151000051515151514E00001C222240
:103E4C00222222000022222222221C00001F2020DB
:103E5C0020201F00007C020202027C0000001C1CBF
:103E6C001C00000000001C1C1C00000000001C1C9E
:103E7C001C00000000001C1C1C00000000001C1C8E
:103E8C001C00000000001C1C1C00000000001C1C7E
:103E9C001C00000000001C1C1C00000040300C0327
:103EAC000C304000010618601806010008080808CC
:103EBC0008083800141414143614080008143614A6
:103ECC0036140800030C3444340C030000494949EF
:103EDC0049497F0000001C1C1C00000000001C1C39
:103EEC001C00000000001C1C1C00000000001C1C1E
:103EFC001C00000000001C1C1C00000000001C1C0E
:103F0C001C00000000001C1C1C00000000001C1CFD
:103F1C001C00000000001C1C1C00000000001C1CED
:103F2C001C00000000001C1C1C0000000040605025
:103F3C00484442004040407E4040400002010101A4
:103F4C000101020000304A49310E0000030F3961B3
:103F5C00310D0300002A2A2A2A2A2A0014151414C7
:103F6C00145414000814220814220000002214080F
:103F7C002214080010701C03010101001C22201CDB
:103F8C0002221C001C22221C2222140000020020EF
:103F9C00000200000000664933000000006649334F
:103FAC006649330000001C1C1C00000000001C1C97
:103FBC001C00000000001C1C1C00000000001C1C4D
:103FCC001C00000000001C1C1C00000000001C1C3D
:103FDC001C00000000001C1C1C00000040605A1556
:103FEC005A60400022152A542251200000287E14C9
:103FFC00143F0A0000007F48241800000060703F46
:10400C00020C00000000027F020000000000227F72
:10401C002200000000060F7F017F000000001C1C26
:10402C001C00000000001C1C1C00000000001C1CDC
:10403C001C00000000001C1C1C0000003E41414103
:10404C0041413E0000001C1C1C00000000001C1C18
:10405C001C00000000001C1C1C00000000001C1CAC
:10406C001C00000000001C1C1C00000000001C1C9C
:10407C001C00000000001C1C1C00000000001C1C8C
:10408C001C00000000001C1C1C00000000001C1C7C
:10409C001C00000000001C1C1C00000000001C1C6C
:1040AC001C00000000001C1C1C00000000001C1C5C
:1040BC001C00000000001C1C1C000000003E5149AC
:1040CC0049453E000000427F400000000042615123
:1040DC005149660000224149494936000010181424
:1040EC00527F5000002F454545453900003C4A4958
:1040FC0049493000000301611905030000364949A4
:10410C00494936000006494949291E0000001C1C7B
:10411C001C00000000001C1C1C00000000001C1CEB
:10412C001C00000000001C1C1C00000000001C1CDB
:10413C001C00000000001C1C1C00000000001C1CCB
:10414C001C00000040705C135C70400000417F4913
:10415C0049493600001C22414142230000417F4165
:10416C0041221C0000417F495D41630000417F49B1
:10417C001D010300001C2241494A3B00417F4908B4
:10418C00497F41000000417F410000000020404178
:10419C003F010000417F490C5361400000417F41C9
:1041AC0040406000417F4418447F4100417F4408F7
:1041BC00117F0100001C224141221C0000417F495B
:1041CC0009090600001C225151225C00417F49095B
:1041DC001966400000662949494A33000301417FB2
:1041EC0041010300013F4140413F010001071960BB
:1041FC0019070100010F710C710F01004163550883
:10420C0055634100010345784503010000635149A2
:10421C004543610000001C1C1C00000000001C1C1D
:10422C001C00000000001C1C1C00000000001C1CDA
:10423C001C00000000001C1C1C00000000001C1CCA
:10424C001C000000002054545438400000017F44EE
:10425C0044380000003844444428000000384445E9
:10426C003F40000000385454541800000000447EB5
:10427C0045010000000854543C04000000417F44F8
:10428C00047840000000447D4000000000204044C1
:10429C003D00000000417F501C6440000000417F45
:1042AC0040000000447C04780478400000447C44C6
:1042BC0004784000003844444438000000447C54E6
:1042CC0014080000000814547C44000000447C4492
:1042DC000408000000485454542000000000043F1F
:1042EC004420000000043C40443C4000040C34409A
:1042FC00340C0400041C601C601C040000446C5052
:10430C00146C440000444C30140C0400004C6454F5
:10431C004C64000000001C1C1C00000000001C1C55
:10432C001C00000000001C1C1C00000000001C1CD9
:10433C001C0000000020547E2C14600020547D2BA7
:10434C001A4C3000003C6010001418001E20700045
:10435C000214180000084A261800000000084946FC
:10436C002618000000482A364C4000000048291648
:10437C003E44400000282A7E1054280024257F1239
:10438C00484A34004839473C001418004839473C27
:10439C0001141900103455574A5A08001034555757
:1043AC004A5B080000081414234100000008141490
:1043BC002345000019370804453F0200193708044B
:1043CC00453E03000020524246424000002052422B
:1043DC004742410000245455575A020000245455BA
:1043EC00575A030000013F404020100000013F409D
:1043FC004120110004040C553F02020004040C552A
:10440C003F020300080A3E48555F4400080A3E4834
:10441C00555E450010120A3D4B49080010120A3D2A
:10442C004B490A00443D0722444C4400443D0722BA
:10443C00454C45000004144D4B4A32000004144D09
:10444C004B4A3300001010482810000004040422CA
:10445C0022120C000404042223120D0002021A265C
:10446C004341010002021A26434501000020514F2E
:10447C00484C40000020514E494C4100140D27522D
:10448C00507E22003947205246424000304E345D67
:10449C000764780024197F0422527C0018241A46E1
:1044AC004224180039472054553F620039472054A4
:1044BC00553E630039472054573D6200023E43404D
:1044CC00211E0400023E4340211E0500023E4340D3
:1044DC00231D06006040205D721060006040205D6E
:1044EC00721062006040205D72156200080C0204BC
:1044FC0008101000080C020409101100080C02042A
:10450C000A1512003967006A6A3F65003967006A4C
:10451C006B3E65003966006A6A3D660000225C5598
:10452C007F2A4200302A1D4B281C1000142D7F427C
:10453C00404E3400304E345D07443800000A3C577E
:10454C005440300000101C304E141800080B0D3471
:10455C00430A0C00001C08543E1408001E300C5278
:10456C003F120C00002050523E68000000205051B9
:10457C007F244400003C154A4A48300000010F4299
:10458C00211E000000126A6D4B49300024197F0473
:10459C00027E200000124A4D4B4930000028127E4A
:1045AC000844380024197F0442221C00304A350F7D
:1045BC0024543800402A26553528400010142D5B11
:1045CC00724C440040301D0B7040300000001C1C2D
:1045DC001C00000000001C1C1C00000000001C1C27
:1045EC001C00000000001C1C1C00000000001C1C17
:1045FC001C00000000001C1C1C00000000001C1C07
:10460C001C00000000001C1C1C00000000001C1CF6
:10461C001C00000000001C1C1C00000000001C1CE6
:10462C001C00000000084838140C00000002422254
:10463C001D050300002020106C040000101008045D
:10464C007B01000000184A46241C0000040C454362
:10465C0022120E0000404838242000004044243C24
:10466C00222220000028285A7E0400002424142D25
:10467C007F0202000044241D27623E000044241DDA
:10468C0027623F000014151F6A0A08000014151F4A
:10469C006A0B08000008484722120E000008484721
:1046AC0022130E00100847241C0202001008472495
:1046BC001D0203000044442422223E0000444424F2
:1046CC0023223F00080A1E44251F0200080A1E442C
:1046DC00251E030000454A202010080000454A20F2
:1046EC0021100900404424141A264000404424148C
:1046FC001B26410008093F48544C440008093F4818
:10470C00554C450000024C40201C030000024C405C
:10471C00211C0300000848472A120E0000084847D5
:10472C002A130E00080A4A3E05040400080A4A3EF1
:10473C000504050000085048201800000408424CED
:10474C0020100E000408424C21100D00080A4A3AB1
:10475C0005050400080A4A3A050405000000017F1B
:10476C00081000000000017E091001000444251F00
:10477C0002020200404424242222200040422A1A31
:10478C000D3300002024157B0E1220000040402029
:10479C001807010020100C00020C300020100C0037
:1047AC00020D310020100C00020D320000013F48B8
:1047BC004844440000013F484944450000013F483B
:1047CC004A4546000004444422120E0000044444AE
:1047DC0023120F000004444422150E00080C02049E
:1047EC0008102000080C020409102100080C020417
:1047FC000A1522002818497F041424002818497F20
:10480C00041525002818497F0615260004041432C7
:10481C004A060200002025254A4000004060584707
:10482C002030600040402414081701001012123E82
:10483C004A4948000010101C681808000404071CA2
:10484C006A060200004048283C20200040442422F4
:10485C003E202000000044542A3E000000424A2A18
:10486C0025253F00000A4A4A25150C0000020E407F
:10487C00211F000040320E017F20100000017F40FC
:10488C0020100800027E2424223A260000184848F2
:10489C00241C0000040C444422120E0010141C159D
:1048AC007F0A08004044243A2A26200000024A4A83
:1048BC0025150F000042442020100800040C45432D
:1048CC0022130E000050341C6838000000201C50CD
:1048DC003008080000001C1C1C00000000001C1C00
:1048EC001C00000000001C1C1C00000000001C1C14
:1048FC001C00000000001C1C1C00000000001C1C04
:10490C001C00000000001C1C1C00000000001C1CF3
:10491C001C00000040705C135C70400000417F493B
:10492C004949360000417F410101030040704C436E
:10493C004C70400000417F495D4163000063514968
:10494C0045436100417F4908497F41001C225D4974
:10495C005D221C000000417F41000000417F490C9A
:10496C005361400040704C034C704000417F441830
:10497C00447F4100417F4408117F010000635D4981
:10498C00495D6300001C224141221C00417F410112
:10499C00417F410000417F490909060000416355F0
:1049AC00494163000301417F410103000201417E43
:1049BC00410102000814557F551408004163550845
:1049CC00556341000106497F490601006C526101A3
:1049DC0061526C0000001C1C1C00000000001C1C20
:1049EC001C00000000001C1C1C00000000001C1C13
:1049FC001C00000000001C1C1C00000000001C1C03
:104A0C001C00000000001C1C1C00000000001C1CF2
:104A1C001C000000003048443448240000601C1284
:104A2C0025251A00000464380804000000304A45AB
:104A3C0039020000002058544428000000000D5298
:104A4C0051210000000824180464180000384E4955
:104A5C00390E00000000304C2000000000601C30BB
:104A6C0048440000004030093E4000000040302C1B
:104A7C0020102C0000047820100C000000081655A3
:104A8C005525000000304844241800000048241C20
:104A9C00047C44000060182424241800003048448E
:104AAC00241C0400000804344C2404000008344C7A
:104ABC0040201C00001824643C27180000402434BB
:104ACC004844000000142C603C231800003844209B
:104ADC0038403C0000001C1C1C00000000001C1C8A
:104AEC001C00000000001C1C1C00000000001C1C12
:104AFC001C00000000001C1C1C00000000001C1C02
:104B0C001C00000000001C1C1C00000000001C1CF1
:104B1C001C00000000001C1C1C00000000001C1CE1
:104B2C001C00000000001C1C1C00000000001C1CD1
:104B3C001C00000000001C1C1C00000000001C1CC1
:104B4C001C00000000001C1C1C00000000001C1CB1
:104B5C001C00000000001C1C1C00000000001C1CA1
:104B6C001C00000000001C1C1C00000000001C1C91
:104B7C001C00000000001C1C1C00000000001C1C81
:104B8C001C00000000001C1C1C00000000001C1C71
:104B9C001C00000000001C1C1C00000000001C1C61
:104BAC001C00000000001C1C1C00000000001C1C51
:104BBC001C00000000001C1C1C00000000001C1C41
:104BCC001C00000000001C1C1C00000000001C1C31
:104BDC001C00000000001C1C1C00000000001C1C21
:104BEC001C00000000001C1C1C00000000001C1C11
:104BFC001C00000000001C1C1C00000000001C1C01
:104C0C001C00000040705C135C70400000417F4948
:104C1C004949330000417F494949360000417F41F1
:104C2C000101030040312F21213F610000417F49E8
:104C3C005D41630000427F4A5A4366004176087F1B
:104C4C00087641000022414949493600417F51080C
:104C5C00457F4100427E510A457E4200417F490812
:104C6C005661410060413F01417F41004079471846
:104C7C0047794000417F4908497F4100001C22418F
:104C8C0041221C00417F4101417F410000417F498D
:104C9C0009090600001C2241414223000301417F07
:104CAC004101030061434D30190701000814557F81
:104CBC00551408004163550855634100213F2120DC
:104CCC00213F6100010F1110497F4100417F407F5E
:104CDC00407F4100213F203F203F610003417F493D
:104CEC0048483000417F4948317F410000417F49AD
:104CFC004848300000224945492A1C00417F493E62
:104D0C0041413E0000463909497F410000001C1C0E
:104D1C001C00000000001C1C1C00000000001C1CDF
:104D2C001C00000000001C1C1C00000000001C1CCF
:104D3C001C00000000001C1C1C00000000001C1CBF
:104D4C001C00000000001C1C1C00000000001C1CAF
:104D5C001C00000000001C1C1C00000000001C1C9F
:104D6C001C00000000001C1C1C00000000001C1C8F
:104D7C001C00000000001C1C1C00000000001C1C7F
:104D8C001C0000000020545454384000003C4A4A97
:104D9C004A31000000447C545428000000447C44F8
:104DAC00040C000040243C243C64000000385454A3
:104DBC00541800000038555455180000446C107CF1
:104DCC00106C4400002844545428000000447C20FB
:104DDC00547C440000447D22557C440000447C54A7
:104DEC00186444000060443C447C4400447C4830DB
:104DFC00487C440000447C10547C440000384444FB
:104E0C004438000000447C04447C440000447C543E
:104E1C00140800000038444444280000000C447C72
:104E2C00440C000000444C30140C04000008557F66
:104E3C005408000000446C10546C440000043C20E6
:104E4C00243C640000040C10547C4400447C407CE2
:104E5C00407C4400243C203C203C6400000C447CFE
:104E6C0050502000447C5450247C440000447C541A
:104E7C00502000000028445454380000447C54381E
:104E8C0044443800004834547C44000000001C1C8E
:104E9C001C00000000001C1C1C00000000001C1C5E
:104EAC001C00000000001C1C1C00000000001C1C4E
:104EBC001C00000000001C1C1C00000000001C1C3E
:104ECC001C00000000001C1C1C00000000001C1C2E
:104EDC001C00000000001C1C1C00000000001C1C1E
:104EEC001C00000000001C1C1C00000000001C1C0E
:104EFC001C0000000808080808080808000000FF4B
:104F0C0000000000000000F808080808080808F86D
:104F1C00000000000808080F000000000000000F4F
:104F2C0008080808000000FF08080808080808F826
:104F3C0008080808080808FF000000000808080F07
:104F4C0008080808080808FF08080808181818189E
:104F5C0018181818000000FFFF000000000000F8EF
:104F6C00F8181818181818F8F80000001818181F56
:104F7C001F0000000000001F1F181818000000FF81
:104F8C00FF181818181818F8F8181818181818FF07
:104F9C00FF0000001818181F1F181818181818FFF1
:104FAC00FF181818000000FFFF080808181818F858
:104FBC0018181818080808FFFF0000001818181F08
:104FCC0018181818181818FF18181818000000FFCF
:104FDC0018181818080808F8F8080808181818FFFE
:104FEC00000000000808080F0F080808080808FF50
:104FFC00FF08080800001C1C1C00000000001C1C02
:10500C001C00000000001C1C1C00000000001C1CEC
:10501C001C00000000001C1C1C00000000001C1CDC
:10502C001C00000000001C1C1C00000000001C1CCC
:10503C001C00000000001C1C1C00000000001C1CBC
:10504C001C00000000001C1C1C00000000001C1CAC
:10505C001C00000000001C1C1C00000000001C1C9C
:10506C001C00000000001C1C1C00000000001C1C8C
:10507C001C00000000001C1C1C00000000001C1C7C
:10508C001C00000000001C1C1C00000000001C1C6C
:10509C001C00000000001C1C1C00000000001C1C5C
:1050AC001C00000000001C1C1C00000000001C1C4C
:1050BC001C00000000001C1C1C00000000001C1C3C
:1050CC001C00000000001C1C1C00000000001C1C2C
:1050DC001C00000000001C1C1C00000000001C1C1C
:1050EC001C00000000001C1C1C00000000001C1C0C
:1050FC001C00000000001C1C1C00000000001C1CFC
:10510C001C00000000001C1C1C00000000001C1CEB
:10511C001C00000000001C1C1C00000000001C1CDB
:10512C001C00000000001C1C1C00000000001C1CCB
:10513C001C00000000001C1C1C00000000001C1CBB
:10514C001C00000000001C1C1C00000000001C1CAB
:10515C001C00000000001C1C1C00000000001C1C9B
:10516C001C00000000001C1C1C00000000001C1C8B
:10517C001C00000000001C1C1C00000000001C1C7B
:10518C001C00000000001C1C1C00000000001C1C6B
:10519C001C00000000001C1C1C00000000001C1C5B
:1051AC001C00000000001C1C1C00000000001C1C4B
:1051BC001C00000000001C1C1C00000000001C1C3B
:1051CC001C00000000001C1C1C00000000001C1C2B
:1051DC001C00000000001C1C1C00000000001C1C1B
:1051EC001C00000000001C1C1C00000000001C1C0B
:1051FC001C00000000001C1C1C00000000001C1CFB
:10520C001C00000000001C1C1C00000000001C1CEA
:10521C001C00000000001C1C1C00000000001C1CDA
:10522C001C00000000001C1C1C00000000001C1CCA
:10523C001C00000000001C1C1C00000000001C1CBA
:10524C001C00000000001C1C1C00000000001C1CAA
:10525C001C00000000001C1C1C00000000001C1C9A
:10526C001C00000000001C1C1C00000000001C1C8A
:10527C001C00000000001C1C1C00000000001C1C7A
:10528C001C00000000001C1C1C00000000001C1C6A
:10529C001C00000000001C1C1C00000000001C1C5A
:1052AC001C00000000001C1C1C00000000001C1C4A
:1052BC001C00000000001C1C1C00000000001C1C3A
:1052CC001C00000000001C1C1C00000000001C1C2A
:1052DC001C00000000001C1C1C00000000001C1C1A
:1052EC001C00000000001C1C1C00000000001C1C0A
:1052FC001C00000000001C1C1C00000000001C1CFA
:10530C001C00000000001C1C1C00000000001C1CE9
:10531C001C00000000001C1C1C00000000001C1CD9
:10532C001C00000000001C1C1C00000000001C1CC9
:10533C001C00000000001C1C1C00000000001C1CB9
:10534C001C00000000001C1C1C00000000001C1CA9
:10535C001C00000000001C1C1C00000000001C1C99
:10536C001C00000000001C1C1C00000000001C1C89
:10537C001C00000000001C1C1C00000000001C1C79
:10538C001C00000000001C1C1C00000000001C1C69
:10539C001C00000000001C1C1C00000000001C1C59
:1053AC001C00000000001C1C1C00000000001C1C49
:1053BC001C00000000001C1C1C00000000001C1C39
:1053CC001C00000000001C1C1C00000000001C1C29
:1053DC001C00000000001C1C1C00000000001C1C19
:1053EC001C00000000001C1C1C00000000001C1C09
:1053FC001C00000000001C1C1C00000000001C1CF9
:10540C001C00000000001C1C1C00000000001C1CE8
:10541C001C00000000001C1C1C00000000001C1CD8
:10542C001C00000000001C1C1C00000000001C1CC8
:10543C001C00000000001C1C1C00000000001C1CB8
:10544C001C00000000001C1C1C00000000001C1CA8
:10545C001C00000000001C1C1C00000000001C1C98
:10546C001C00000000001C1C1C00000000001C1C88
:10547C001C00000000001C1C1C00000000001C1C78
:10548C001C00000000001C1C1C00000000001C1C68
:10549C001C00000000001C1C1C00000000001C1C58
:1054AC001C00000000001C1C1C00000000001C1C48
:1054BC001C00000000001C1C1C00000000001C1C38
:1054CC001C00000000001C1C1C00000000001C1C28
:1054DC001C0000005D557F557F555D001E125D7FE1
:1054EC00557F5D00445C374C5A7F5A007F251B1D4D
:1054FC00155D7F00222E7A4B1A2E52004D575D27D8
:10550C002D574D00527F0A565D345600445C372CA3
:10551C0076557600493852567D535400564E5732C4
:10552C00574A56000A7A5F4A5F7A0A00357F153A65
:10553C002D7F5800693F4F5F6F1F6900527F205FBE
:10554C005D75530075205F5D754D5700423F027EBF
:10555C005F555F002A3A2F2A7B2E2A004A3A2F2ABF
:10556C002F3A0A00421D5F144E552A001A7F2A2E2C
:10557C007B2E2A00403F41497F4941002D772D2A3F
:10558C00217E2400527F215F51275C00565A2A1B32
:10559C007A4A5E005C374C7F557F40004E7B2E3E36
:1055AC00424342007A5D5A086C6B6C002A752C3FA2
:1055BC002A3E7E002A75285A2F5A4800421D5F70D9
:1055CC005F547400425A1A425F225300515B337F7E
:1055DC00335B5100127B360076557600464A5A2FC3
:1055EC003A4A4600403E0A363B764A00527F4E5AB3
:1055FC002F3A4E003E2A3E0E6B6E0A00565A3E7BE8
:10560C00365A56007F2B7B6C7B2B7F00377E4F5A94
:10561C002F3A4E000A7A565F567A0A00201F5042E3
:10562C00243F4000047E05553F151F00047E437E39
:10563C00635E4200047E137A4F324A00047E293A9C
:10564C002F7A2E007F557F557F557F00425E563F47
:10565C00567642004A5A775F375A4A00403E562ED9
:10566C00563F5200403F6B2B025A7F00067F047F4F
:10567C004A7F4A00682A5E5B7E0A6800502F5B4BAB
:10568C0066125F0020573D55355770001A7F125A2D
:10569C00177A120020521B56175C7000507F551F52
:1056AC00355F500050571D171D575000357F154A58
:1056BC00552B18002A75287F4A7F4A002A75283AEC
:1056CC002F7A2E00077D2D2F2D7D0700525A775EE5
:1056DC00375A520012527A471A324A006B620F7DC7
:1056EC002F7D0F004938545D577D570049386E5A4D
:1056FC005F5A6E007F41696F5D6D690012523F12F7
:10570C00127F1200424A562B122A4200243F5A5A48
:10571C00223F52000A7A2E2B2A760A00127F2A7A0E
:10572C007F251B000937723D483A550008080808C8
:10573C00080C08001A0A7A5F5A4A1A0075004A7750
:10574C0072774A004938426E5D776C00357F15726E
:10575C00067175004A02534E3B4A5A00222A6F7A50
:10576C002F2A22005D1F5D77205D770044241E05E3
:10577C007C4264003E2A29007F011F001E127F55C7
:10578C004F557F00407C2F2D2F7C40007F65554F5F
:10579C0055657F005F3C7F554F557F001D15557734
:1057AC0000007F007A5D5A04433E46007500565255
:1057BC0076515500403F7A2D787F40007E36537AE3
:1057CC00573A52007F1B5632177656007F1B547681
:1057DC005D3254007F1B663A5E5965000A6E6B5E43
:1057EC0017175C001E121E0A527F0200120A7F4A13
:1057FC004A7A02001612567F16121600401E5A1BC9
:10580C005A1E70002125517F25517F00493844656F
:10581C007F4544007D05557F05557D001E523D009A
:10582C007F011F005A2B7E2B5E177600563A56438B
:10583C003E7A5E004849794F497F48000937317FED
:10584C004A7F4A007E4A49404A4A7E007500786F7A
:10585C00690F78001E523E644F6A4A001E121E5F8A
:10586C0015155F004A7F7A5D0A5F7A00423E6F2E03
:10587C001B4A7E005D1F4C5F2D5F4C005C372C1A61
:10588C006F5A4900403F2D533F735F0075007A2AD1
:10589C007F2A7B00403E427E413D40007F05577C85
:1058AC0057057F001E121E3752771E004445655D5A
:1058BC00452544004938535D7F5D53005652775758
:1058CC0053365600127A17567F5612007A5D5A21BB
:1058DC003F2D7F002C146F764D314F0006636E7B8D
:1058EC006E63060054537B5433535400441F751F8E
:1058FC00444A25003E2A7E4E3B4E4800404E4A4FBD
:10590C005A2E5000464B2A7F2A4B46002818457DBC
:10591C0010284400752818457D10280075004E4A43
:10592C005F2E5000293F5A573A575A0049755B75FC
:10593C005B724E00573A7A305D175D00571A7A1039
:10594C005D175D00525A573A575A52000A7D2A7712
:10595C002E457D006A63285D7D102800567D4E3BE8
:10596C000A7B4E007500127E532A5A00543E524E4A
:10597C00377E52004A77527252774A005F1F754049
:10598C003F196700067F4E3B0A7B4E006A6B103F47
:10599C002D4F78006A3F4A7E625F6A007F435F2822
:1059AC007F437F001A7F515F2F5F4100403F7B7B1D
:1059BC00453F45007F09090F09497F007F655F77E7
:1059CC005F657F00243F7F496F5769000A3A363B79
:1059DC00767A4A0056527E5B3E525600553B405AF0
:1059EC00525E55006A2B45536F096B00527F0A3685
:1059FC003B764A00527F462A5E295D007500087787
:105A0C00507708007500562A3B2A5600485A241332
:105A1C00245A48004C3F247A017D7B004C3F245D86
:105A2C005F7F5D00561E431E571E5600554A3D7E35
:105A3C0057365C002A75245D752754005E77762FE7
:105A4C007A5D5B00525A2F1A7F4A5A007E665F7647
:105A5C005F667E004938645E775E6400567D36086A
:105A6C00775077004A0B5D1B5F197B00243F446F16
:105A7C006A6E4200423E4B7A022952007500051FA5
:105A8C00155575002B3F2A5F355F7F007F414F48CE
:105A9C004F417F00484E2A1F2A4E4800505E5A3F05
:105AAC00565E50000A7D44557E544400403E22769A
:105ABC004B622200527F1F157F151F003E2A3E416C
:105ACC00497F49001A7F4A3F3A3F4A007F554914A3
